:100000000C9467000C94EF020C94C8020C948F00BF
:100010000C948F000C948F000C948F000C948F0024
:100020000C948F000C948F000C948F000C948F0014
:100030000C948F000C948F000C948F000C948F0004
:100040000C947E020C948F000C9427020C940102F5
:100050000C948F000C948F000C948F000C948F00E4
:100060000C948F000C948F0005040C0413041A04E4
:10007000210428042F0436043E044604000000082E
:10008000000201000003040700000000000000005F
:1000900000000000250028002B00000000002400C4
:1000A00027002A00040404040404040402020202D7
:1000B000020203030303030301020408102040802B
:1000C0000102040810200102040810200C09112468
:1000D0001FBECFEFD8E0DEBFCDBF22E0AEE7B1E07C
:1000E00001C01D92AF36B207E1F711E0A0E0B1E028
:1000F000E6EFF6E102C005900D92AE37B107D9F7F1
:1001000010E0C7E6D0E004C02197FE010E946E0B0C
:10011000C636D107C9F70E944D050C94790B0C9493
:100120000000CF92DF92EF92FF920F931F93CF9335
:10013000DF936C017A018B01C0E0D0E0CE15DF05C2
:1001400089F0D8016D918D01D601ED91FC9101905E
:10015000F081E02DC6010995892B11F47E0102C0C2
:100160002196ECCFC701DF91CF911F910F91FF90A6
:10017000EF90DF90CF900895FC01538D448D252F93
:1001800030E0842F90E0821B930B541710F0CF9631
:10019000089501970895FC01918D828D981761F063
:1001A000828DDF01A80FB11D5D968C91928D9F5FAE
:1001B0009F73928F90E008958FEF9FEF0895FC0159
:1001C000918D828D981731F0828DE80FF11D858D0C
:1001D00090E008958FEF9FEF0895FC01918D228D9F
:1001E000892F90E0805C9F4F821B91098F73992724
:1001F000089581EB91E00E94ED0021E0892B09F444
:1002000020E0822F0895FC01848DDF01A80FB11D2D
:10021000A35ABF4F2C91848D90E001968F7399273C
:10022000848FA689B7892C93A089B1898C91806429
:100230008C93938D848D981306C00288F389E02DEA
:1002400080818F7D80830895EF92FF920F931F939B
:10025000CF93DF93EC0181E0888F9B8D8C8D981379
:1002600005C0E889F989808185FD24C0F62E0B8DB3
:1002700010E00F5F1F4F0F731127E02E8C8DE812D7
:100280000CC00FB607FCFACFE889F989808185FF99
:10029000F5CFCE010E940301F1CF8B8DFE01E80F57
:1002A000F11DE35AFF4FF0820B8FEA89FB898081B1
:1002B000806207C0EE89FF896083E889F9898081BF
:1002C0008064808381E090E0DF91CF911F910F9156
:1002D000FF90EF900895CF93DF93EC01888D8823F2
:1002E000C9F0EA89FB89808185FD05C0A889B989A3
:1002F0008C9186FD0FC00FB607FCF5CF808185FF7E
:10030000F2CFA889B9898C9185FFEDCFCE010E94EB
:100310000301E7CFDF91CF91089580E090E0892B32
:1003200029F00E94F90081110C940000089590E0DA
:10033000FC01E458FF4F3491FC01E854FF4F249135
:10034000FC01EC55FF4FE491EE2309F43BC033234D
:1003500039F1333091F038F43130A9F0323001F511
:1003600084B58F7D12C0373091F03830A1F0343031
:10037000B9F4809180008F7D03C0809180008F77D9
:10038000809380000DC084B58F7784BD09C08091B3
:10039000B0008F7703C08091B0008F7D8093B00054
:1003A000F0E0EE0FFF1FE057FF4FA591B4918FB71C
:1003B000F894EC91611103C020952E2301C02E2BDF
:1003C0002C938FBF089508950895CF93DF931F92C4
:1003D000CDB7DEB76983DC01ED91FC910280F3813A
:1003E000E02D41E050E0BE016F5F7F4F09950F9017
:1003F000DF91CF910895089580E090E008950E94E4
:10040000740B1F920F920FB60F9211242F933F93EC
:100410004F935F936F937F938F939F93AF93BF930C
:10042000EF93FF9381EB91E00E940301FF91EF9125
:10043000BF91AF919F918F917F916F915F914F91FC
:100440003F912F910F900FBE0F901F9018951F9204
:100450000F920FB60F9211242F938F939F93EF93C8
:10046000FF93E091C101F091C2018081E091C70149
:10047000F091C80182FD12C090818091CA018F5F06
:100480008F732091CB01821751F0E091CA01F0E007
:10049000EF54FE4F958F8093CA0101C08081FF9178
:1004A000EF919F918F912F910F900FBE0F901F9002
:1004B00018953FB7F8948091830190918401A091A1
:1004C0008501B091860126B5A89B05C02F3F19F084
:1004D0000196A11DB11D3FBFBA2FA92F982F8827C4
:1004E000820F911DA11DB11DBC01CD0142E0660F1F
:1004F000771F881F991F4A95D1F708951F920F9271
:100500000FB60F9211242F933F938F939F93AF9326
:10051000BF9380917F0190918001A0918101B09162
:10052000820130917E0123E0230F2D3720F40196C4
:10053000A11DB11D05C026E8230F0296A11DB11D06
:1005400020937E0180937F0190938001A09381018D
:10055000B09382018091830190918401A0918501E3
:10056000B09186010196A11DB11D809383019093E6
:100570008401A0938501B0938601BF91AF919F91B3
:100580008F913F912F910F900FBE0F901F90189554
:100590001F920F920FB60F9211242F933F934F93F8
:1005A0005F936F937F938F939F93AF93BF93EF93DB
:1005B000FF93E0911201F09113010995FF91EF91E2
:1005C000BF91AF919F918F917F916F915F914F916B
:1005D0003F912F910F900FBE0F901F9018951F9273
:1005E0000F920FB60F9211242F933F934F935F9367
:1005F0006F937F938F939F93AF93BF93EF93FF93EB
:10060000E0911001F09111010995FF91EF91BF91D7
:10061000AF919F918F917F916F915F914F913F919A
:100620002F910F900FBE0F901F901895EF92FF9291
:100630001F93CF93DF931F92CDB7DEB77C01162FA8
:1006400060E0FC01808949830E949701F70194854D
:1006500085859CBD8DBD1EBD000049810DB407FE82
:10066000FDCF8EB54EBD00000DB407FEFDCF1EB50B
:1006700061E0F70180890E949701812F0F90DF913F
:10068000CF911F91FF90EF9008956F7740E00C9409
:100690001603EF92FF921F93CF93DF931F92CDB774
:1006A000DEB77C01DC01ED91FC910084F185E02D49
:1006B0000995892B99F06DE0C7010E944503482FE9
:1006C00060E0C70149830E944503182F49816DE806
:1006D000C7010E941603812F90E002C08FEF9FEFA9
:1006E0000F90DF91CF911F91FF90EF900895CF93DE
:1006F000DF93EC01E881F9810084F185E02D099513
:10070000892B59F08A8D9B8D01969B8F8A8F60E093
:10071000CE010E94450390E002C08FEF9FEFDF9172
:10072000CF910895CF93DF93EC0163E10E944503DD
:10073000282F30E08A8D9B8DA901481B590BCA01D7
:10074000DF91CF9108958F929F92AF92BF92CF92F7
:10075000DF92FF920F931F93CF93DF931F92CDB73A
:10076000DEB76C01B62E4A0162E279830E9445032E
:10077000F82E90E09C01280D391D79812F3F31051D
:1007800031F028F02FEF30E04901881A990A0B2D3B
:10079000172F5801A80CB91C0A151B0541F0F801C8
:1007A00041918F0160E8C6010E941603F5CF482DE4
:1007B0004F0D62EAC6010E941603C4010F90DF913B
:1007C000CF911F910F91FF90DF90CF90BF90AF908E
:1007D0009F908F900895CF92DF92EF92FF92CF93E8
:1007E000DF936DE18EE492E00E944503E82FF0E094
:1007F000A4E0F595E795AA95E1F7EA30F10508F050
:100800004CC0EC5CFF4F0C946E0BF8E7CF2EFEE172
:10081000DF2EE12CF12C41C0E0EACE2EE8E2DE2E04
:10082000E12CF12C3AC070EFC72E7CE3D72EE12CDF
:10083000F12C33C060E4C62E61E5D62EE12CF12CFC
:100840002CC052E1C52E5AE7D52EE12CF12C25C043
:1008500044EEC42E42EAD42EE12CF12C1EC034E228
:10086000C32E34EFD32EE12CF12C17C028E4C22E76
:1008700028EED22EEE24E394F12C0FC090E9C92E7D
:1008800090EDD92E93E0E92EF12C07C080E2C82E1E
:1008900081EAD82E87E0E82EF12C6EE18EE492E01A
:1008A0000E944503D82F66E28EE492E00E94450341
:1008B000C82FD295DF7081E090E0A0E0B0E09C010D
:1008C000AD0104C0220F331F441F551FDA95D2F724
:1008D000C701B6010E944F0B68EE73E080E090E024
:1008E0000E944F0B21313105410551051CF04C2F61
:1008F000486002C04C2F477F66EA8EE492E0DF91A9
:10090000CF91FF90EF90DF90CF900C94160300975B
:1009100069F0FC0101900020E9F73197AF01481B15
:10092000590BBC0181EB91E00C94910080E090E0C8
:10093000089590E0FC01E854FF4F2491FC01EC5530
:10094000FF4F8491882399F090E0880F991FFC0154
:10095000E656FF4FA591B491FC01E057FF4F8591FA
:1009600094918FB7F894EC91E22BEC938FBF08959C
:100970008F929F92AF92BF92CF92DF92EF92FF92AF
:100980000E9459024B015C018AE0C82ED12CE12C57
:10099000F12C0E945902DC01CB0188199909AA099E
:1009A000BB09883E9340A105B10558F021E0C21A69
:1009B000D108E108F10888EE880E83E0981EA11C9A
:1009C000B11CC114D104E104F10419F7FF90EF90B8
:1009D000DF90CF90BF90AF909F908F900895E0915F
:1009E000B101F091B2010190F081E02D682F81EB0F
:1009F00091E009948F929F92AF92BF920F931F93B1
:100A0000CF93DF93CDB7DEB7A1970FB6F894DEBFD3
:100A10000FBECDBF19A2423008F44AE08E010F5D2F
:100A20001F4F842E912CA12CB12CA50194010E9462
:100A30002D0BE62FB901CA0101501109EA3014F457
:100A4000E05D01C0E95CD801EC93232B242B252B1E
:100A500061F7C8010E948704A1960FB6F894DEBF23
:100A60000FBECDBFDF91CF911F910F91BF90AF907F
:100A70009F908F90089581E090E090936B02809317
:100A80006A026DE18EE492E00E944503482F4160C6
:100A90006DE98EE492E00C941603789484B582603C
:100AA00084BD84B5816084BD85B5826085BD85B512
:100AB000816085BD80916E00816080936E00109290
:100AC000810080918100826080938100809181000B
:100AD000816080938100809180008160809380009C
:100AE0008091B10084608093B1008091B0008160FA
:100AF0008093B00080917A00846080937A00809126
:100B00007A00826080937A0080917A00816080937D
:100B10007A0080917A00806880937A001092C100F8
:100B2000E091C101F091C20182E08083E091BD01BA
:100B3000F091BE011082E091BF01F091C00180E10F
:100B400080831092C901E091C501F091C60186E051
:100B50008083E091C301F091C40180818061808332
:100B6000E091C301F091C401808188608083E091AD
:100B7000C301F091C401808180688083E091C3014A
:100B8000F091C40180818F7D80839CE088E10FB665
:100B9000F894A895809360000FBE909360008AE35C
:100BA00091E00E94870486E491E00E9487048AE035
:100BB00090E090935F0280935E0289E090E09093D2
:100BC00061028093600284E090E0909363028093DE
:100BD00062028AE00E94990461E080915E020E94B4
:100BE000970180916002909161028F3F2FEF9207F1
:100BF00081F00E94990460E0809160020E94970158
:100C00000E94B80461E0809160020E9497010E94F6
:100C1000B804CFB7F89480918701811124C0EEEA1F
:100C2000F0E08491E2ECF0E09491E82FF0E0EE0F38
:100C3000FF1FE656FF4FA591B491EC91E92321F4F3
:100C400061E08AE00E9497018AE00E9499048CB5D5
:100C500080618CBD8CB580648CBD8DE00E94990450
:100C60008BE00E949904809187018F5F80938701B8
:100C7000CFBF62E48EE492E00E944503823109F026
:100C8000BFC240E861E88EE492E00E94160380EA69
:100C900097E2AEEBB3E38093640290936502A09376
:100CA0006602B093670249ED66E88EE492E00E9426
:100CB000160346E067E88EE492E00E94160346E6DB
:100CC00068E88EE492E00E94160340E06EE88EE44D
:100CD00092E00E94160340E06FE88EE492E00E94EA
:100CE00016036CE08EE492E00E944503482F4360B7
:100CF0006CE88EE492E00E94160344E066EA8EE41B
:100D000092E00E9416034FE869E88EE492E00E94A8
:100D1000160341E861E88EE492E00E94160343E87E
:100D200069E88EE492E00E94160345EC61EB8EE4E4
:100D300092E00E9416034CE067EB8EE492E00E9482
:100D400016036EE18EE492E00E9445038F70482FF7
:100D500040666EE98EE492E00E9416030E94EB0367
:100D60006DE18EE492E00E9445038F70482F40644D
:100D70006DE98EE492E00E9416030E94EB036EE19F
:100D80008EE492E00E944503482F44606EE98EE4B1
:100D900092E00E94160314EF01E782E0282E312C26
:100DA00080911401909115018130910569F024F42E
:100DB000892B09F421C2F1C18230910509F476C072
:100DC000039709F419C2E9C189E491E0809388018D
:100DD00098EB9093890123EC20938A018DE1809315
:100DE0008B0110938C0100938D0197E890938E01F5
:100DF0002BE320938F018CED8093900181EE809303
:100E000091018EE08093920187E7809393010E9485
:100E100059026B017C016093AC017093AD0180932A
:100E2000AE019093AF0141E861E88EE492E00E9448
:100E300016030E943B0540E06DE88EE492E00E94BC
:100E4000160340E062EA8EE492E00E9416034CE052
:100E500050E068E871E08EE492E00E94A30343E86A
:100E600061E88EE492E00E94160362E18EE492E073
:100E70000E94450383FFF9CF48E062E98EE492E0E7
:100E80000E9416031092B0010E9459026C197D094C
:100E90008E099F094AE00E94FA0486E491E00E94CC
:100EA00087043092150120921401A6C18091AB01F4
:100EB0008F5F8093AB0162E18EE492E00E94450374
:100EC000C82F0E943B0546E062EA8EE492E00E9451
:100ED00016034C2F62E98EE492E00E941603C6FFCF
:100EE0002BC0C5FD29C01092690210926802809142
:100EF0006A0290916B02892B11F062E201C063E1FA
:100F00008EE492E00E944503C82FD0E060E18EE4B9
:100F100092E00E944503482F6DE88EE492E00E9423
:100F2000160341E861E88EE492E00E9416032097E0
:100F300009F42CC1F12C15C061E08EE492E00E940E
:100F40004503863809F465C140E06DE88EE492E01F
:100F50000E94160346E861E88EE492E00E941603C0
:100F600058C18EE492E00E949203892BA1F08EE496
:100F700092E00E947703EF2D0F2C000CFF0BE95637
:100F8000FE4F8083682F70E080E090E04AE00E948E
:100F9000FA04F394E6CF6AE18EE492E00E944503FE
:100FA000E82EF12C609164027091650280916602D6
:100FB000909167020E946A0924E832EF4EE45EE4F1
:100FC0000E94630987FD03C08DE990E002C084EAB6
:100FD00090E0E81AF90AF0929601E09295018BE40C
:100FE00091E00E948704C0909501D09096010D2C4D
:100FF000000CEE08FF08F7FE0CC08DE20E94EF0423
:1010000066277727CB016C197D098E099F094AE075
:1010100003C04AE0C701B6010E94FA0484E591E0EA
:101020000E94870469E18EE492E00E944503682FE4
:10103000880F770B880B990B0E946A0920E030E03B
:1010400040E85EE30E94C9096B017C014B015C0131
:101050009B01AC010E94280B882319F08CE591E0DC
:101060001AC026013701E89477F82FEF3FEF4FE7DA
:101070005FE7C301B2010E94280B81110FC02FEF5F
:101080003FEF4FE75FE7C301B2010E946309181603
:101090002CF480E691E00E94870474C02FEF3FEFAC
:1010A0004FE75FE4C701B6010E94230B18161CF43A
:1010B00084E691E0F0CF2FEF3FEF4FE75FECC70101
:1010C000B6010E94630987FDF3CF20E030E0A9015B
:1010D000C701B6010E94630987FF09C08DE20E9423
:1010E000EF0446015701B7FAB094B7F8B0942AE07C
:1010F00037ED43EA5BE3C501B4010E94880A4B0166
:101100005C010E94F40A6B017C010E9468099B014A
:10111000AC01C501B4010E94870A4B015C014AE0A1
:10112000C701B6010E94FA048EE20E94EF0420E09B
:1011300030E040E251E4C501B4010E94C9096B01ED
:101140007C010E94F40A4B01A12CB12C4AE0C5019C
:10115000B4010E94FA04C501B4010E9468099B0110
:10116000AC01C701B6010E94870A20E030E040E2EE
:1011700051E40E94C9090E94F40A80E090E04AE02C
:101180000E94FA0486E491E00E948704C0939401CF
:10119000CD2B91F11092AB012FC00E945902C0904B
:1011A000A701D090A801E090A901F090AA01C6166D
:1011B000D706E806F90600F50E945902DC01CB01CA
:1011C000805E914BAF4FBF4F8093A7019093A801D2
:1011D000A093A901B093AA010E9459026093A301B0
:1011E0007093A4018093A5019093A60181E090E003
:1011F0009093150180931401A8950E948D01D0CD84
:1012000088E691E00E94870486E491E00E948704CA
:10121000FFCFC0E0D0E0BACFE1EBF1E01382128261
:1012200088EE93E0A0E0B0E084839583A683B78343
:101230008AE191E09183808385EC90E095878487B3
:1012400084EC90E09787868780EC90E0918B808B90
:1012500081EC90E0938B828B82EC90E0958B848B79
:1012600086EC90E0978B868B118E128E138E148EE7
:10127000EEE4F2E0138212828CE291E091838083AB
:1012800080E5848781E085878EE692E09787868770
:101290008AE090E0918B808B89E090E0938B828B49
:1012A00082E090E0958B848B168A178A108E118EBF
:1012B000138E128E158E148E178E168E1482158232
:1012C0001682178208950E94A50908F481E0089506
:1012D000E89409C097FB3EF49095809570956195D0
:1012E0007F4F8F4F9F4F9923A9F0F92F96E9BB2786
:1012F0009395F695879577956795B795F111F8CF02
:10130000FAF4BB0F11F460FF1BC06F5F7F4F8F4F6C
:101310009F4F16C0882311F096E911C0772321F062
:101320009EE8872F762F05C0662371F096E8862FFA
:1013300070E060E02AF09A95660F771F881FDAF751
:10134000880F9695879597F90895990F0008550F7E
:10135000AA0BE0E8FEEF16161706E807F907C0F03B
:1013600012161306E407F50798F0621B730B840B43
:10137000950B39F40A2661F0232B242B252B21F41D
:1013800008950A2609F4A140A6958FEF811D811DBD
:1013900008950E94DC090C944D0A0E943F0A38F01F
:1013A0000E94460A20F0952311F00C94360A0C9402
:1013B0003C0A11240C94810A0E945E0A70F3959FE6
:1013C000C1F3950F50E0551F629FF001729FBB273C
:1013D000F00DB11D639FAA27F00DB11DAA1F649FD8
:1013E0006627B00DA11D661F829F2227B00DA11D8B
:1013F000621F739FB00DA11D621F839FA00D611D11
:10140000221F749F3327A00D611D231F849F600D31
:10141000211D822F762F6A2F11249F5750409AF05A
:10142000F1F088234AF0EE0FFF1FBB1F661F771FE6
:10143000881F91505040A9F79E3F510580F00C94B1
:10144000360A0C94810A5F3FE4F3983ED4F3869504
:1014500077956795B795F795E7959F5FC1F7FE2B51
:10146000880F911D9695879597F9089597F99F672D
:1014700080E870E060E008959FEF80EC089500241C
:101480000A941616170618060906089500240A94E9
:1014900012161306140605060895092E0394000C6F
:1014A00011F4882352F0BB0F40F4BF2B11F460FFFE
:1014B00004C06F5F7F4F8F4F9F4F089557FD905827
:1014C000440F551F59F05F3F71F04795880F97FB08
:1014D000991F61F09F3F79F08795089512161306C2
:1014E0001406551FF2CF4695F1DF08C016161706F1
:1014F0001806991FF1CF8695710561050894089526
:10150000E894BB2766277727CB0197F908955058B1
:10151000BB27AA270E949F0A0C944D0A0E943F0AEB
:1015200038F00E94460A20F039F49F3F19F426F45F
:101530000C943C0A0EF4E095E7FB0C94360AE92F74
:101540000E945E0A58F3BA1762077307840795076B
:1015500020F079F4A6F50C94800A0EF4E0950B2E99
:10156000BA2FA02D0B01B90190010C01CA01A001F5
:101570001124FF27591B99F0593F50F4503E68F150
:101580001A16F040A22F232F342F4427585FF3CF91
:10159000469537952795A795F0405395C9F77EF462
:1015A0001F16BA0B620B730B840BBAF09150A1F0AB
:1015B000FF0FBB1F661F771F881FC2F70EC0BA0F31
:1015C000621F731F841F48F4879577956795B795B9
:1015D000F7959E3F08F0B0CF9395880F08F09927B4
:1015E000EE0F9795879508950E94660A88F09F5799
:1015F00098F0B92F9927B751B0F0E1F0660F771F37
:10160000881F991F1AF0BA95C9F714C0B13091F02C
:101610000E94800AB1E008950C94800A672F782F09
:101620008827B85F39F0B93FCCF3869577956795F1
:10163000B395D9F73EF490958095709561957F4F5D
:101640008F4F9F4F08950E94A50908F48FEF0895CA
:101650000E94A509880B990B0895A1E21A2EAA1BD6
:10166000BB1BFD010DC0AA1FBB1FEE1FFF1FA21752
:10167000B307E407F50720F0A21BB30BE40BF50B4F
:10168000661F771F881F991F1A9469F760957095D8
:10169000809590959B01AC01BD01CF010895052E69
:1016A00097FB1EF400940E94660B57FD07D00E9422
:1016B0002D0B07FC03D04EF40C94660B509540950F
:1016C000309521953F4F4F4F5F4F089590958095EE
:1016D000709561957F4F8F4F9F4F0895EE0FFF1FBD
:1016E0000590F491E02D099481E090E0F8940C9439
:0616F000790BF894FFCF16
:1016F600B80BB80BD007B80BB80BB80BB80BB80BB8
:10170600E301E30101000000000024019100BC0098
:101716006B01ED00CB00DF0000000000E501A30334
:10172600FC01E4019203770349034C6F5261205395
:10173600656E646572000D0A0053002720525353EC
:10174600493A20002720534E523A20006E616E001F
:10175600696E66006F7666005374617274696E67AF
:0E176600204C6F5261206661696C6564210041
:107E0000112484B714BE81FFF0D085E080938100F7
:107E100082E08093C00088E18093C10086E0809377
:107E2000C20080E18093C4008EE0C9D0259A86E02C
:107E300020E33CEF91E0309385002093840096BBD3
:107E4000B09BFECF1D9AA8958150A9F7CC24DD24C4
:107E500088248394B5E0AB2EA1E19A2EF3E0BF2EE7
:107E6000A2D0813461F49FD0082FAFD0023811F036
:107E7000013811F484E001C083E08DD089C08234E0
:107E800011F484E103C0853419F485E0A6D080C0E4
:107E9000853579F488D0E82EFF2485D0082F10E0AE
:107EA000102F00270E291F29000F111F8ED06801E7
:107EB0006FC0863521F484E090D080E0DECF843638
:107EC00009F040C070D06FD0082F6DD080E0C81688
:107ED00080E7D80618F4F601B7BEE895C0E0D1E017
:107EE00062D089930C17E1F7F0E0CF16F0E7DF06D8
:107EF00018F0F601B7BEE89568D007B600FCFDCFD4
:107F0000A601A0E0B1E02C9130E011968C91119780
:107F100090E0982F8827822B932B1296FA010C0160
:107F200087BEE89511244E5F5F4FF1E0A038BF0790
:107F300051F7F601A7BEE89507B600FCFDCF97BE46
:107F4000E89526C08437B1F42ED02DD0F82E2BD052
:107F50003CD0F601EF2C8F010F5F1F4F84911BD097
:107F6000EA94F801C1F70894C11CD11CFA94CF0C13
:107F7000D11C0EC0853739F428D08EE10CD085E9AC
:107F80000AD08FE07ACF813511F488E018D01DD067
:107F900080E101D065CF982F8091C00085FFFCCF94
:107FA0009093C60008958091C00087FFFCCF809118
:107FB000C00084FD01C0A8958091C6000895E0E648
:107FC000F0E098E1908380830895EDDF803219F02E
:107FD00088E0F5DFFFCF84E1DECF1F93182FE3DFCA
:107FE0001150E9F7F2DF1F91089580E0E8DFEE27F6
:047FF000FF270994CA
:027FFE00040479
:0400000300007E007B
:00000001FF
